:020000040800F2
:100000006007002065010008D30E0008D10E00082B
:1000100000000000000000000000000000000000E0
:10002000000000000000000000000000FF0E0008BB
:100030000000000000000000FD0E0008010F000895
:1000400077010008770100087701000877010008B0
:1000500077010008770100084902000877010008CD
:100060007701000877010008770100087701000890
:100070007701000877010008770100087701000880
:10008000770100080D0F00087701000877010008CC
:100090007701000877010008770100087701000860
:1000A0007701000877010008770100087701000850
:1000B0007701000877010008770100087701000840
:1000C00000F002F800F03EF80CA030C80838241800
:1000D0002D18671EA246AB4654465D46AC4201D180
:1000E00000F030F87E460F3EB6460FCC0126334274
:1000F00000D0FB1A3343A246AB461847E417000072
:1001000004180000103A02D378C878C1FAD8520710
:1001100001D330C830C101D504680C6070470000BD
:100120000023002400250026103A01D378C1FBD813
:10013000520700D330C100D50B6070471FB51FBDFB
:1001400010B510BD00F04DF81146FFF7F7FF01F0B4
:1001500047F800F065F803B4FFF7F2FF03BC00F0C6
:100160006BF800000748804707480047FEE7FEE7B6
:10017000FEE7FEE7FEE7FEE704480549054A064BB1
:1001800070470000090F0008C1000008600100204E
:1001900060070020600300206003002001E004C02D
:1001A000091F0429FBD28B0701D50280801CC907D7
:1001B00000D00270704700290BD0C30702D0027034
:1001C000401C491E022904D3830702D50280801CEB
:1001D000891EE3E70022EEE70022DFE77047704761
:1001E0007047754600F024F8AE4605006946534650
:1001F000C008C000854618B020B5FFF7BDFF60BC41
:10020000B64600260027C0C5C0C5C0C5C0C5C0C50C
:10021000C0C5C0C5C0C5403D490849008D467047AE
:1002200010B50446C046C0462046FFF794FF10BDF7
:10023000004870471000002001491820ABBEFEE7BF
:100240002600020070470000B0B50425284600F0E3
:10025000BBF90824204600F0B7F9E04801684907D7
:1002600003D4016809070FD4B0BD0168A943016038
:100270000C4918390A680023521C0A604A685A411E
:100280004A6001680907EFD50168A143016005488C
:10029000103801680022491C0160416851414160E9
:1002A000B0BDC04670000020F0B583B000230293BB
:1002B0003422825C012A02D1022003B0F0BD0193F6
:1002C000074634370668B268520716D400970D689F
:1002D0004B6801242746AF403E4A934214D1B06A8E
:1002E000B843B062284610380228019E3046009F6D
:1002F0005BD8112D1AD03C4819E0816B20220A43AB
:1003000082630120019E50E0B26A3A43B262C06A41
:10031000421E072A4CD2284610380228019E304639
:10032000009F42D8112D0DD020060CE02D48102D35
:1003300000D12E4828490A6802400A6030463E70C3
:1003400003B0F0BDA005102D00D1E00522490A68D8
:1003500002430A60102D304627D12048006820490A
:1003600001F0AAF90A21414302910298002830467F
:100370001BD00298401E02900298002811D00298CB
:10038000401E0290029800280BD00298401E029056
:100390000298002805D00298401E0290029800287A
:1003A000E7D130463E7003B0F0BD3E7003B0F0BD03
:1003B00022079042AFD072690720024089689142BB
:1003C000A9D072698243726101407069084370610B
:1003D000A1E7C046011000000827014008000020E6
:1003E00040420F00FFFFBFFFFFFFFFFEFFFF7FFF49
:1003F000F0B581B00125002862D0044606462436B7
:10040000806B002803D0A06BC00609D554E0002003
:100410003074E063204600F097F8A06BC0064BD420
:1004200020688168490747D481214900A26B8A432B
:10043000911CA163826803210A40012A05D1026848
:10044000D2070ED1C26812040BD4C26818239A4393
:10045000A3681343C360890702698A436168114333
:100460000161C168364A0A40C260A16A491E4A1E3B
:1004700091410903227E9203637EDB031343A27E34
:1004800055031D43E36827692B430B43B91E4D42B7
:100490004D41AD001D43317849002943E37E012BD6
:1004A00014D1002A0FD0A26B20231343A363E26B65
:1004B00001231343E36309E0A06B10210143A1630F
:1004C000284601B0F0BD012212041143E269FF2366
:1004D000C2339A4202D0236A19431143C2680A43C5
:1004E000C260E26A531E072B24D243690725AB433F
:1004F00043612A40436913434361C068114A024083
:100500008A420AD10025E563A06B01210143022044
:100510008143A163284601B0F0BDA06B10210143C7
:1005200002208143A163E06B01252843E063284654
:1005300001B0F0BD01231B079A42D6D0DDE7C046CB
:100540001902FEFFE7FF3F8310B586B00021059139
:1005500004910068104A904201D006B010BD0120FD
:1005600042020E4B5C6814435C605C68144000946B
:10057000009AC0041A6802431A601A680240009286
:10058000039103200290072001900098044801A9DC
:1005900000F026F806B010BD0024014014100240FF
:1005A00000080048B0B5044600F0ECF80546601CB1
:1005B00002D091480078041900F0E4F8401BA042F2
:1005C000FAD3B0BD7047000080B504490A68024202
:1005D00002D00860FFF7F6FF80BDC046140401405A
:1005E000F0B58AB002900D68002D00D1B9E05E48E8
:1005F000029A824201D0052000E004201723DB0686
:10060000D2180A23DA410092042A00D3009000276E
:100610003B463C4608912A460BE013433360079B58
:10062000641C0A681046E040BF1C1B1D002800D156
:1006300097E001200646A6403240F1D0049007938F
:1006400003200346BB400397DF4349680D4605403E
:100650006B1E012B0697059113D80192029A9068A0
:100660003840089BDB68039FBB4003439360C80688
:10067000C00FA0405368B3431646019A034373600A
:1006800006E0032D029E039F02D10546079B1EE054
:10069000F0680699084008998B68BB400343F360F3
:1006A000022D079B13D11C2018400F218140E30825
:1006B0009B00F3181D6A8D43089E316981402943D0
:1006C0001962079B7068029E032505900540BD4096
:1006D0003068069908402843306005988003800FF1
:1006E0000899049D9CD04F49086828430860086811
:1006F000284009900C2018400F21814003232546F3
:100700009D43099B1A4EAB598B4300998140194375
:10071000A9510899154EB5684868C3020FD515430D
:10072000B560F56883020FD49543F560756883035F
:100730000FD4954375603368C00310D56DE79543BA
:10074000B560F5688302EFD51543F56075688303DE
:10075000EFD5154375603368C00300D55DE793435B
:100760005CE70AB0F0BDC04600100048000401403C
:1007700008000140002A02D0182281507047282228
:1007800081507047054800687047C0461A48007895
:1007900002490A68101808607047C04658010020D6
:1007A00080B58B48016810220A430260032000F0E4
:1007B00005F800F023F8002080BDC04670B504465F
:1007C0007D20C0000C4E317800F076FF014688484D
:1007D000006800F071FF00F061FB0125032C08D8D0
:1007E000002806D10025E84321462A4600F028F8D3
:1007F0007460284670BDC0460000002082B00948E1
:1008000001680122114301600168114001910199C1
:10081000110742680A43426040680840009000980F
:1008200002B0704718100240002805D41F2108406C
:1008300001218140014801607047C04600E100E0AD
:10084000002805D40322034693430A4A9A1803E07A
:100850000C220240064BD2188007C00E8901C9B293
:100860008140FF238340106898430843106070471D
:1008700014ED00E000E400E0F0B581B0002847D0BE
:100880000446534A1368012003408B4208D2136880
:100890000126B3430B431360126832408A4238D1B9
:1008A000009121688A074B4B11D54A0707D50722CB
:1008B0001202484B1B681343464A1360454B1A68A3
:1008C000F0239A43A3681343424A1360414BC9077C
:1008D00022D13F49086801263040009A904205D94C
:1008E0000868B04308600868C00712D12078400744
:1008F00006D50720000219688143E06808431860A4
:100900001A681007810F3548022912D2044650E0B8
:100910000126304601B0F0BD616803290DD01A1FD1
:1009200002290FD0012912D1126892030646F0D590
:1009300011E0032926D12A4C3BE01A6B92030646AC
:10094000E7D508E0126892010646E2D503E0126896
:1009500092070646DDD518680326B04308431860A1
:10096000FFF710FF07461C4D1A4B18680C21014079
:10097000606880008142ACD0FFF704FFC01BA84232
:10098000F2D9C6E70321CB031249896A0F240C4030
:100990001449095D94021A40240F134D2C5D9A42AC
:1009A00002D033049A4200E00D4800F085FE444333
:1009B000084B18680006000F0C49085CC4400C483E
:1009C00004600320FFF7FAFE0026304601B0F0BDB8
:1009D00000200240041002408813000000127A0038
:1009E000006CDC02CE180008BE180008AE18000823
:1009F00008000020F0B587B004460120002C00D18B
:100A000045E204902078C007F94E05940CD0716837
:100A10000C200140042900D090E03068800303D509
:100A20006068002800D120E12078800721D5706817
:100A30000007800F0ED070680C210140082900D0FB
:100A40009DE00320C003716801400120C003814282
:100A500000D094E030688007059C03D5E068012849
:100A600000D002E13068F82188432169C9000143C0
:100A70003160059C2078000724D42078400737D4C3
:100A80002078C00600D4D3E005984069411D00D10C
:100A9000C2E0012800D030E1706B04210143716392
:100AA000706B012101437163FFF76CFE0546706BAB
:100AB000800700D5B4E0FFF765FE411B0320022943
:100AC000F5D9E4E1706AE169002900D181E00121F2
:100AD00008437062FFF756FE0546706A8007CCD463
:100AE000FFF750FE401B0228F7D9032007B0F0BDE6
:100AF000012003900107F0690840029006D1F069D7
:100B00000843F061F0690840069006980191E14FB2
:100B10003868C0054AD40398040238682043386016
:100B2000FFF730FE0546386820423FD1FFF72AFE26
:100B3000401B6428F7D9032007B0F0BD716801405D
:100B4000082908D10320C003716801400120000476
:100B5000814200D161E7616801204704002900D18A
:100B600017E1052900D12BE1012900D12CE1010475
:100B700032688A43326081043068884327E13068F4
:100B8000059CE168002936D0012108433060FFF759
:100B9000F9FD05463068800700D563E7FFF7F2FDF1
:100BA000401B0228F6D9032007B0F0BD05988068E5
:100BB000002800D1B6E0052800D1C9E0012800D105
:100BC000CAE0306A039988433062306A042188435E
:100BD000C5E0012188437062FFF7D4FD0546706AC5
:100BE000800700D449E7FFF7CDFD401B0228F6D966
:100BF000032007B0F0BD012188433060FFF7C2FD3C
:100C000005463068800700D433E7FFF7BBFD411B82
:100C100003200229F5D93AE1706B042188437063FF
:100C2000706BF821884305998969C9000143716394
:100C30000598007880060BD571680C2001400C29BE
:100C400039D1706B800303D50598006A01280CD157
:100C50000598446A002C00D1E1E070680C21014045
:100C6000082905D1012C00D0C4E0049807B0F0BDDC
:100C70000120020631680492914331604706FFF774
:100C800081FD0546022C0BD1049C3068384200D10E
:100C9000DEE0FFF777FD411B03200229F5D9F6E0DE
:100CA0003068384200D1BAE0FFF76CFD411B0320E9
:100CB0000229F5D9EBE071680140082905D103202C
:100CC000C003716801408142BBD0706B0599096A0D
:100CD000002900D1A9E001210A04104370634C04EB
:100CE000FFF750FD0546706B2042B1D1FFF74AFD7A
:100CF000411B03200229F6D9C9E0706B042101438E
:100D00007163706B012188437063FFF73BFD0546FB
:100D1000706B80078CD5FFF735FD411B032002293E
:100D2000F6D9B4E0306A039988433062306A04210E
:100D300088433062584CFFF725FD0546306A80072E
:100D40001DD5FFF71FFD411B0320A142F6D99EE0F0
:100D5000306A042101433162306A039908433062EA
:100D60004D4CFFF70FFD0546306A800707D4FFF7AB
:100D700009FD401BA042F7D9032007B0F0BD02983F
:100D80000028059C00D07BE6F06901998843F0615A
:100D900076E6010432688A43326080043168814318
:100DA0003160FFF7EFFC0546059C3068384200D102
:100DB0003AE6FFF7E7FC411B03206429F5D966E01A
:100DC000810432680A4332600104306808433060AD
:100DD000FFF7D8FC05463068384200D024E6FFF71C
:100DE000D1FC401B6428F6D9032007B0F0BDC046F3
:100DF000001002400320C20370680240F16A059CA3
:100E0000A36A9A42049D0DD10F221140236B99428F
:100E100008D191040840E16A8842284637D1002071
:100E200007B0F0BD284607B0F0BD01210A04904389
:100E300070634C04FFF7A6FC0546706B204200D19E
:100E400006E7FFF79FFC411B03200229F5D91EE0AE
:100E5000F06A0F218843059A116B0143F1627B20F0
:100E6000C00371688143D06A0843916A014371608D
:100E7000306820433060FFF785FC04463068384214
:100E8000CDD1FFF77FFC011B03200229F6D907B063
:100E9000F0BDC0460070004088130000401E010EE7
:100EA00001D0012070470749074A5060074803688E
:100EB0000B40032189075918016000209060072129
:100EC00011607047FFFFFF0010E000E020ED00E040
:100ED000FEE7FEE780B50021C18141890389591AE7
:100EE0008181038AD21A028209B2CA174911914339
:100EF000642900DB6421C269904780BD7047704758
:100F000080B5FFF743FC80BD70470000F0B581B0AD
:100F1000124D2C46383412488169618102696A8118
:100F2000C3690026C6618661476946610661881803
:100F30005F414008F90746187F08296A284632466B
:100F40003B468847A96D204632463B4688470548C0
:100F5000016801229143016001B0F0BDE80000206A
:100F60007000002010100040F0B584B00122900401
:100F7000524C211F0B6803430B6020681043206014
:100F800020681040039003982020C5434C4C204615
:100F90000C3801682940016010210191CE4301689D
:100FA000314001608021CF43016839400160402118
:100FB0000091C94303680B400360201F03682B4066
:100FC000036003683340036003683B4003600368C9
:100FD0000B4003602068284020602068304020607B
:100FE000206801990843206020682840206020681C
:100FF000304020602068084320600425EF43314CD6
:101000002068384020602068284320600826F0438C
:10101000216801402160216831432160A168394085
:10102000A160A1682943A160A1680140A160A168F5
:101030003143A160E1683940E160E1682943E16042
:10104000E1680140E160E0683043E0601B4B184616
:101050000C38016811430160186810431860186863
:101060001E461040029002981120000216490B689B
:1010700003430B60154C00982060FF252904144899
:1010800003688B439105591801607168019B1943EE
:10109000716010490B238B620F4BCB62CB681343FB
:1010A000CB600B6813430B60510421602902C368B5
:1010B0008B43D1035918C16004B0F0BD1810024031
:1010C0000C040048000401400800014000E100E079
:1010D00004E400E00010004030750000F0B503218A
:1010E00048043C4A1368034313600920C306186888
:1010F0000224204318601D68012085431D601D687F
:1011000008262E431E601D680426B5431D601D6A17
:10111000FF26B5431D621D6A25431D621D6A2024FA
:1011200025431D6235012C4B1E682E401E600B2688
:1011300037021A68BA431A6002021F6817431F6019
:10114000B2021F6897431F6082021F6817431F6027
:1011500032031F6897431F6010351A682A431A60CC
:10116000B2031D6895431D6082031D6815431D6011
:101170005A69102515435D615A69A2435A615A693B
:10118000402414435C615A698024A2435A61E34BB2
:101190009A6802439A60114B1A46183A0024146068
:1011A0001C609C601C68602525431D6049031C6809
:1011B0000C431C60996811240C439C6018614B21FE
:1011C000490159617D210901D96119621168014301
:1011D0001160F0BD141002400004004818000040E7
:1011E0009AB0FFF7DDFA0126F304CC4D28681843C6
:1011F0002860FF2006900103C94802688A43026004
:101200005521090302680A430260C64A0021516061
:101210000F4629680793194329600F2109050268C1
:101220008A4302600521490502680A430260416A57
:10123000BD4C2140416211210902426A0A434262C7
:10124000B104A86804910843A860B8480068B84D84
:10125000E968EF604B21C90100F02EFAE96801430B
:10126000E960286808210143296028680421059164
:1012700008432860286820210143296028683043FA
:1012800028607007AB490860AB48E04B9860AB48FA
:1012900001682140B20389180160A9481860A94D6E
:1012A00064226E60AA600897EF60A7482862A74989
:1012B000E9612E70382302240394EC542823EF5460
:1012C000A34BAB86EE632A646F64A24828630922AD
:1012D000D0066862A04AAA61A04B6B6160242E55BB
:1012E0002F4638379E4CBC869A4CAC66EB642A6518
:1012F00069659549A9650290E865FFF7EFFEFFF77C
:1013000033FEC24806718168051D284688470DAC2A
:10131000201D3021FEF760FF1296109612200D90CE
:10132000089816901020139011902046FFF762FB4A
:10133000002803D0EFF3108072B6FEE7079C0197F8
:1013400008990C910B910A910720099009A8FFF7C1
:1013500093FA002803D0EFF3108072B6FEE76F4ACD
:10136000106820431060106820400D900D987004A4
:10137000116801431160116801400D910D981068CA
:10138000049908431060106808400D900D98F021F2
:1013900007917048089C2246FFF7ECF903981190DA
:1013A00010940F940E9003200D900DAF02983946C3
:1013B000FFF716F90F94312000040E900C200490D2
:1013C0000D9064483946FFF70BF910940F940E9670
:1013D00007980D905F483946FFF702F9062738460F
:1013E00021462246FFF72CFA3846FFF71DFA5C200B
:1013F00086490C540E668C65069FC237594888632F
:10140000CC630C644C648E6405980A464C3291C2DD
:10141000084638300446FEF7EBFF002803D0EFF310
:10142000108072B6FEE706970A200D9030070F90E5
:1014300030030E900DA92046FEF736FF002803D09A
:10144000EFF3108072B6FEE70B200D900DA9204639
:10145000FEF72AFF002803D0EFF3108072B6FEE7F4
:1014600004980D900DA92046FEF71EFF002803D01A
:10147000EFF3108072B6FEE7644CA671A1682846AF
:101480008847304FB96938468847396D0198884791
:101490006671A16828468847A671A16828468847D2
:1014A00038467B6937462646642421463A469847A3
:1014B0002448C36C019821463A4698477771B16831
:1014C00028468847F07941424141F171B168284688
:1014D00088477D20C4002046FFF764F8B771B168E3
:1014E000284688471748816988471648016D019842
:1014F00088477771B168284688472046FFF752F839
:10150000069CF07941424141F171B1682846884713
:1015100020463330FFF746F8F3E7C0461410024088
:101520000008004870000020FF00FFFF08000020B6
:101530000048004000E100E0911500081CE400E0D4
:1015400019160008E8000020D50E000869150008EB
:10155000040500000004004811160008BD1500082D
:10156000060700000024014064290DD800780228F5
:1015700006D0012808D17D20C000044908607047CA
:101580007D20C000014948607047C04634000040DB
:1015900081784902427812020A43C178C901114395
:1015A00000788001084304490A6802400A600A681A
:1015B00002430A607047C04614080048F0B581B085
:1015C00015460E4604461148012747718168001DE3
:1015D0008847002E0BD02046343026814278007890
:1015E000002D02DD0146104603E0114601D401B092
:1015F000F0BD3A468A40216B4B6913434B618740EB
:101600004869B843486101B0F0BDC0467000002091
:10161000002101817047000010B582B001220092C4
:10162000030A2449009C002C1DD00C68240601D517
:1016300000240094009C002C15D00C68240601D5D1
:1016400000240094009C002C0DD00C68240601D5C9
:1016500000240094009C002C05D00C682406E1D5E1
:1016600000240094DEE78B810192019A002A1CD0AD
:101670000A68120601D500220192019A002A14D0AC
:101680000A68120601D500220192019A002A0CD0A4
:101690000A68120601D500220192019A002A04D09C
:1016A0000A681206E1D50022DEE7C0B2888102B0E6
:1016B00010BDC0461C48004043088B421AD300228C
:1016C00003098B4279D3030A8B425ED3030B8B420F
:1016D00042D3030C8B4227D30902FF2212BA030C18
:1016E0008B4202D31212090203D0030B8B4233D375
:1016F0001AE0D3E0411A8041401C704703460B4377
:1017000071D443088B42F5D3002203098B4254D392
:10171000030A8B4239D3030B8B421DD3030C8B423C
:1017200002D394466EE0090AC30B8B4201D3CB036C
:10173000C01A5241830B8B4201D38B03C01A524112
:10174000430B8B4201D34B03C01A5241030B8B4214
:1017500001D30B03C01A5241C30A8B4201D3CB02FF
:10176000C01A5241830A8B4201D38B02C01A5241E4
:10177000430A8B4201D34B02C01A5241030A8B42E7
:1017800001D30B02C01A5241CDD2C3098B4201D3FF
:10179000CB01C01A524183098B4201D38B01C01A7D
:1017A000524143098B4201D34B01C01A52410309F4
:1017B0008B4201D30B01C01A5241C3088B4201D3A3
:1017C000CB00C01A524183088B4201D38B00C01A50
:1017D000524143088B4201D34B00C01A5241411A77
:1017E000524110007047CA0F00D04942031000D385
:1017F0004042534000229C4603098B422DD3030AEA
:101800008B4212D38901FC2212BA030A8B420CD3F9
:10181000890192118B4208D3890192118B4204D322
:10182000890137D0921100E08909C3098B4201D3A5
:10183000CB01C01A524183098B4201D38B01C01ADC
:10184000524143098B4201D34B01C01A5241030953
:101850008B4201D30B01C01A5241C3088B4201D302
:10186000CB00C01A524183088B4201D38B00C01AAF
:101870005241D9D243088B4201D34B00C01A524186
:10188000411A00D201465241104663465B1000D314
:101890004042704763465B1000D3404201B50021CF
:1018A000004201D0C9430846C046C04602BD000000
:1018B00000000000000001020304060708090203FB
:1018C0000405060708090A0B0C0D0E0F1010010283
:1018D000030405060708090A0B0C0D0E0F10000083
:1018E000001900080000002010000000040100089A
:1018F0001019000810000020500700002001000807
:10190000010000000400000000127A000000000046
:04000005080000C12E
:00000001FF
